:0400000000000D28C7
:100008007E14803120007F08F0007008FF007E1009
:1000180009000E28203084000030850012300D239E
:10002800F7308400823085003B308600003087003E
:10003800083013237E102000FF2A20000C1A3428D1
:100048002B08803AB90080303902031D2D28013071
:100058002A02031C4428FF302000AA07FF30432847
:100068002B08803AB90080303902031D3D28193029
:100078002A020318442801302000AA070030AB3DAB
:1000880020002A082B04031D61283F034004031D98
:10009800562841034204031D5D280130AC0000309E
:1000A800AD005D28AC01AD010130B7000030B800EB
:1000B80034212000C101C20108002B08803AB90090
:1000C80080303902031D6A2819302A02031C0800EF
:1000D80020002C032D04031D75280030B700B8003C
:1000E80034212000AC01AD010130C1000030C20054
:1000F8001930AA000030AB00080020008C1A9428A0
:100108002708803AB90080303902031D8D28013054
:100118002602031CA428FF302000A607FF30A328CE
:100128002708803AB90080303902031D9D2819300C
:1001380026020318A42801302000A6070030A73D96
:10014800200026082704031DC1283B033C04031D87
:10015800B6283D033E04031DBD280130A800003029
:10016800A900BD28A801A9010130B7000030B800D6
:100178006E212000BD01BE0108002708803AB900A1
:1001880080303902031DCA2819302602031C0800D2
:10019800200028032904031DD5280030B700B80023
:1001A8006E212000A801A9010130BD000030BE0069
:1001B8001930A6000030A7000800F90000308B1B9A
:1001C8000130F800043079020318EE282130750256
:1001D800031CF028FF3008007908F600F701053005
:1001E800F635F70D890BF4287608803EFA003F3083
:1001F800773DFB008B137B08F2007A08F10055224B
:100208002300151315159516750803192B297B0856
:10021800230092007A0891000130FA070030FB3D74
:10022800740886008701010893000130F6007608FB
:10023800F407940175030319951255309600AA30F6
:1002480096009514000000000130F50208292300EB
:100258001511780C031C8B1303188B17003008003A
:10026800200038084006031D3B2937083F060319BC
:1002780008003808C0003708BF00370C2200031CEC
:100288000C1103180C152000370C2200031C0E114A
:1002980003180E15200037083804031D56292200BC
:1002A8008E14582922008E1014302000B20000301D
:1002B800B3000B2222000E118E1020004008B60059
:1002C8003F08B500AF2214302000B2000030B30060
:1002D8000B220800200038083C06031D7529370842
:1002E8003B06031908003808BC003708BB00370C68
:1002F8002200031C8E1203188E162000370C2200D1
:10030800031C0E1003180E14200037083804031DB0
:10031800902922000E16922922000E121430200075
:10032800B2000030B3000B2222000E100E12200083
:100338003C08B6003B08B500BC2214302000B200CF
:100348000030B3000B220800FA007408F600F70129
:100358000530F635F70D890BAD297608803EF80093
:100368003F30773DF900213075020318BF2904306A
:100378007402031CD729FF3008007908F2007808B6
:10038800F10071227108F6007A0886008701760864
:1003980081000130F8070030F93D0130F600760899
:1003A800FA070130F5027508031DC129003008005D
:1003B8000030FC000030FB000030FA000030F9008B
:1003C800711CEE297508F9077608FA3D7708FB3D98
:1003D8007808FC3D0130F535F60DF70DF80D890B61
:1003E800EF290130F436F30CF20CF10C890BF629E5
:1003F8007408730472047104031DE4297C08F40072
:100408007B08F3007A08F2007908F1000800200060
:100418003208F1003308F200F301F4010030F8006B
:100428000030F7000330F600E830F500DC217408EE
:100438002000A3007308A2007208A1007108A000A0
:10044800230822042104200403190800FF30A00710
:10045800FF30A13DFF30A23DFF30A33D242A2000FC
:1004680024082504031D0800F401F40A0430FB00E5
:100478007B08F5002E30A821FC007C082000B20083
:100488002E032F0403194A2AAE01AF0130033104A9
:100498000319502AB001B1010130A4000030A500B1
:1004A800080000308B1B0130F3008B137108230008
:1004B80091007208920015131516151555309600FF
:1004C800AA30960095140000000023001511730C43
:1004D800031C8B1303188B17080000308B1B01308B
:1004E800F3008B1371082300910072089200151312
:1004F800151400000000730C031C8B1303188B17D2
:1005080023001408F2001308F100080021000C1061
:100518008C100C110C168C1623000C1221000E10D6
:100528008E100E118E110E128E1222008E120C11C8
:100538008E11ED2208002E302000B2003208F4009F
:100548000430B3003308F5000130E1202000B40086
:100558003408FC0008002000350336040319B62AC5
:10056800B501B6013608B1003508B0009F22080071
:100578002000350336040319C32AB501B60136082D
:10058800AF003508AE009F2208000623200034087B
:10059800BA003308B9003A08B8003908B70034215E
:1005A8000800E12220003408BA003308B9003A08EC
:1005B800B8003908B7006E21080020002408250477
:1005C800031DE72A192320002F08B4002E08B300C2
:1005D800080021009E171E088F3960389E00FC30E5
:1005E8009E051D140800FF34FF3401340034FF3425
:1005F800FF34013400341E238A22D522C9228120E7
:100608002120032B332220003108B4003008B30026
:100618000800640080010131890B0E2B0034FE00B4
:1006280012001E00FE0B142B00342000A401A501AB
:0E063800332208007830210099049A0108004E
:020000040001F9
:04000E00E4F9FFFF13
:00000001FF
