:0400000000000D28C7
:100008007E14803120007F08F0007008FF007E1009
:1000180009000E2820308400003085000E303C2274
:100028005122B7005222B8005322B9005422BA0014
:100038007E102000422A20008C1A32282708803A95
:10004800B50080303502031D2B2801302602031C21
:100058004228FF302000A607FF3041282708803AB1
:10006800B50080303502031D3B28193026020318DD
:10007800422801302000A6070030A73D20002608AE
:100088002704031D5F2837033804031D5428390348
:100098003A04031D5B280130A8000030A9005B2842
:1000A800A801A9010130B3000030B400D22020001B
:1000B800B901BA0108002708803AB5008030350236
:1000C800031D682819302602031C08002000280395
:1000D8002904031D73280030B300B400D220200087
:1000E800A801A9010130B9000030BA001930A600F2
:1000F8000030A7000800F90000308B1B0130F80021
:100108000430790203188C2821307502031C8E28CC
:10011800FF3008007908F600F7010530F635F70DCD
:10012800890B92287608803EFA003F30773DFB0025
:100138008B137B08F2007A08F1009721230015132E
:100148001515951675080319C9287B082300920010
:100158007A0891000130FA070030FB3D74088600E8
:100168008701010893000130F6007608F40794012E
:1001780075030319951255309600AA309600951408
:10018800000000000130F502A62823001511780CA4
:10019800031C8B1303188B17003008002000340849
:1001A8003806031DD9283308370603190800340810
:1001B800B8003308B700330C2200031C8E12031852
:1001C8008E162000330C2200031C0E1003180E1488
:1001D800200033083404031DF42822000E16F628E4
:1001E80022000E1214302000AE000030AF006F2144
:1001F80022000E100E1220003808B2003708B10095
:100208000D2214302000AE000030AF006F2108002E
:10021800FA007408F600F7010530F635F70D890B7A
:1002280011297608803EF8003F30773DF9002130EB
:1002380075020318232904307402031C3B29FF307C
:1002480008007908F2007808F100CF217108F6005B
:100258007A0886008701760881000130F8070030A7
:10026800F93D0130F6007608FA070130F502750805
:10027800031D2529003008000030FC000030FB0079
:100288000030FA000030F900711C52297508F9078E
:100298007608FA3D7708FB3D7808FC3D0130F535D6
:1002A800F60DF70DF80D890B53290130F436F30CD0
:1002B800F20CF10C890B5A29740873047204710446
:1002C800031D48297C08F4007B08F3007A08F20033
:1002D8007908F100080020002E08F1002F08F2002C
:1002E800F301F4010030F8000030F7000330F600A5
:1002F800E830F500402174082000A3007308A2002C
:100308007208A1007108A000230822042104200417
:1003180003190800FF30A007FF30A13DFF30A23DC0
:10032800FF30A33D882900308B1B0130F3008B136D
:1003380071082300910072089200151315161515FF
:1003480055309600AA30960095140000000023004E
:100358001511730C031C8B1303188B17080020004E
:1003680024082504031D0800F401F40A0430FB00E6
:100378007B08F5002A300C21FC007C082000AE0028
:100388002A032B040319CA29AA01AB010130A400CE
:100398000030A500080000308B1B0130F3008B13E0
:1003A80071082300910072089200151315140000BB
:1003B8000000730C031C8B1303188B1723001408FD
:1003C800F2001308F100080021000C108C100C1129
:1003D8000C168C1623000C1221000E108E100E1114
:1003E8008E110E128E1222008E120C118E113222D4
:1003F80008002A302000AE002E08F4000430AF00B8
:100408002F08F50001307F202000B0003008FC00E4
:1004180008002000310332040319142AB101B20183
:100428003208AB003108AA00FD210800262220006E
:100438003008B6002F08B5003608B4003508B300F8
:10044800D2200800200024082504031D2C2A472256
:1004580020002B08B0002A08AF00080021009E17D2
:100468001E088F3960389E00FC309E051D14080058
:10047800640080010131890B3D2A00344C22E821B7
:100488001A221F20452A2000A401A501B321080033
:100498007830210099049A010800FF34FF340134B0
:0204A80000341E
:020000040001F9
:04000E00E4F9FFFF13
:00000001FF
